{
  "_format": "hh-sol-artifact-1",
  "contractName": "VotingPlatform",
  "sourceName": "contracts/VotingPlatform.sol",
  "abi": [
    {
      "inputs": [],
      "stateMutability": "nonpayable",
      "type": "constructor"
    },
    {
      "anonymous": false,
      "inputs": [
        {
          "indexed": false,
          "internalType": "uint256",
          "name": "index",
          "type": "uint256"
        }
      ],
      "name": "VoteAdded",
      "type": "event"
    },
    {
      "inputs": [
        {
          "internalType": "bool",
          "name": "_multipleChoice",
          "type": "bool"
        },
        {
          "internalType": "uint256",
          "name": "_dateOfStart",
          "type": "uint256"
        },
        {
          "internalType": "uint256",
          "name": "_dateOfEnd",
          "type": "uint256"
        },
        {
          "internalType": "uint256",
          "name": "_dateOfEndAddPrivateKeys",
          "type": "uint256"
        },
        {
          "components": [
            {
              "internalType": "uint256",
              "name": "id",
              "type": "uint256"
            },
            {
              "internalType": "string",
              "name": "name",
              "type": "string"
            }
          ],
          "internalType": "struct VotingPlatformLib.Candidate[]",
          "name": "_candidates",
          "type": "tuple[]"
        },
        {
          "internalType": "uint256",
          "name": "_votersCount",
          "type": "uint256"
        },
        {
          "internalType": "uint256",
          "name": "_modulus",
          "type": "uint256"
        },
        {
          "internalType": "uint256",
          "name": "_exponent",
          "type": "uint256"
        }
      ],
      "name": "createVote",
      "outputs": [],
      "stateMutability": "nonpayable",
      "type": "function"
    },
    {
      "inputs": [],
      "name": "getVotesCount",
      "outputs": [
        {
          "internalType": "uint256",
          "name": "",
          "type": "uint256"
        }
      ],
      "stateMutability": "view",
      "type": "function"
    },
    {
      "inputs": [],
      "name": "owner",
      "outputs": [
        {
          "internalType": "address",
          "name": "",
          "type": "address"
        }
      ],
      "stateMutability": "view",
      "type": "function"
    },
    {
      "inputs": [
        {
          "internalType": "uint256",
          "name": "",
          "type": "uint256"
        }
      ],
      "name": "votes",
      "outputs": [
        {
          "internalType": "contract Vote",
          "name": "",
          "type": "address"
        }
      ],
      "stateMutability": "view",
      "type": "function"
    }
  ],
  "bytecode": "0x608060405234801561001057600080fd5b50336000806101000a81548173ffffffffffffffffffffffffffffffffffffffff021916908373ffffffffffffffffffffffffffffffffffffffff160217905550612f97806100606000396000f3fe60806040523480156200001157600080fd5b5060043610620000525760003560e01c80631192bd1214620000575780631b605b8614620000775780635df8133014620000995780638da5cb5b14620000cf575b600080fd5b6200007560048036038101906200006f9190620004c8565b620000f1565b005b6200008162000280565b60405162000090919062000856565b60405180910390f35b620000b76004803603810190620000b19190620005a4565b6200028d565b604051620000c6919062000817565b60405180910390f35b620000d9620002cd565b604051620000e8919062000765565b60405180910390f35b60008054906101000a900473ffffffffffffffffffffffffffffffffffffffff1673ffffffffffffffffffffffffffffffffffffffff163373ffffffffffffffffffffffffffffffffffffffff161462000182576040517f08c379a0000000000000000000000000000000000000000000000000000000008152600401620001799062000834565b60405180910390fd5b600188888888888888886040516200019a90620002f1565b620001ad98979695949392919062000782565b604051809103906000f080158015620001ca573d6000803e3d6000fd5b509080600181540180825580915050600190039060005260206000200160009091909190916101000a81548173ffffffffffffffffffffffffffffffffffffffff021916908373ffffffffffffffffffffffffffffffffffffffff1602179055507fca4f4e617a82c74ac41214e7eeb397d2d16ca7807cc366995e9e52dc2b7a444d600180805490506200025f919062000967565b6040516200026e919062000856565b60405180910390a15050505050505050565b6000600180549050905090565b600181815481106200029e57600080fd5b906000526020600020016000915054906101000a900473ffffffffffffffffffffffffffffffffffffffff1681565b60008054906101000a900473ffffffffffffffffffffffffffffffffffffffff1681565b6124068062000b5c83390190565b60006200031662000310846200089c565b62000873565b905080838252602082019050828560208602820111156200033657600080fd5b60005b858110156200038557813567ffffffffffffffff8111156200035a57600080fd5b80860162000369898262000445565b8552602085019450602084019350505060018101905062000339565b5050509392505050565b6000620003a6620003a084620008cb565b62000873565b905082815260208101848484011115620003bf57600080fd5b620003cc84828562000a14565b509392505050565b600082601f830112620003e657600080fd5b8135620003f8848260208601620002ff565b91505092915050565b600081359050620004128162000b27565b92915050565b600082601f8301126200042a57600080fd5b81356200043c8482602086016200038f565b91505092915050565b6000604082840312156200045857600080fd5b62000464604062000873565b905060006200047684828501620004b1565b600083015250602082013567ffffffffffffffff8111156200049757600080fd5b620004a58482850162000418565b60208301525092915050565b600081359050620004c28162000b41565b92915050565b600080600080600080600080610100898b031215620004e657600080fd5b6000620004f68b828c0162000401565b9850506020620005098b828c01620004b1565b97505060406200051c8b828c01620004b1565b96505060606200052f8b828c01620004b1565b955050608089013567ffffffffffffffff8111156200054d57600080fd5b6200055b8b828c01620003d4565b94505060a06200056e8b828c01620004b1565b93505060c0620005818b828c01620004b1565b92505060e0620005948b828c01620004b1565b9150509295985092959890939650565b600060208284031215620005b757600080fd5b6000620005c784828501620004b1565b91505092915050565b6000620005de838362000702565b905092915050565b620005f181620009a2565b82525050565b6000620006048262000911565b62000610818562000934565b935083602082028501620006248562000901565b8060005b85811015620006665784840389528151620006448582620005d0565b9450620006518362000927565b925060208a0199505060018101905062000628565b50829750879550505050505092915050565b6200068381620009b6565b82525050565b6200069481620009ec565b82525050565b6000620006a7826200091c565b620006b3818562000945565b9350620006c581856020860162000a23565b620006d08162000aed565b840191505092915050565b6000620006ea60178362000956565b9150620006f78262000afe565b602082019050919050565b60006040830160008301516200071c600086018262000743565b50602083015184820360208601526200073682826200069a565b9150508091505092915050565b6200074e81620009e2565b82525050565b6200075f81620009e2565b82525050565b60006020820190506200077c6000830184620005e6565b92915050565b6000610100820190506200079a600083018b62000678565b620007a9602083018a62000754565b620007b8604083018962000754565b620007c7606083018862000754565b8181036080830152620007db8187620005f7565b9050620007ec60a083018662000754565b620007fb60c083018562000754565b6200080a60e083018462000754565b9998505050505050505050565b60006020820190506200082e600083018462000689565b92915050565b600060208201905081810360008301526200084f81620006db565b9050919050565b60006020820190506200086d600083018462000754565b92915050565b60006200087f62000892565b90506200088d828262000a59565b919050565b6000604051905090565b600067ffffffffffffffff821115620008ba57620008b962000abe565b5b602082029050602081019050919050565b600067ffffffffffffffff821115620008e957620008e862000abe565b5b620008f48262000aed565b9050602081019050919050565b6000819050602082019050919050565b600081519050919050565b600081519050919050565b6000602082019050919050565b600082825260208201905092915050565b600082825260208201905092915050565b600082825260208201905092915050565b60006200097482620009e2565b91506200098183620009e2565b92508282101562000997576200099662000a8f565b5b828203905092915050565b6000620009af82620009c2565b9050919050565b60008115159050919050565b600073ffffffffffffffffffffffffffffffffffffffff82169050919050565b6000819050919050565b6000620009f98262000a00565b9050919050565b600062000a0d82620009c2565b9050919050565b82818337600083830152505050565b60005b8381101562000a4357808201518184015260208101905062000a26565b8381111562000a53576000848401525b50505050565b62000a648262000aed565b810181811067ffffffffffffffff8211171562000a865762000a8562000abe565b5b80604052505050565b7f4e487b7100000000000000000000000000000000000000000000000000000000600052601160045260246000fd5b7f4e487b7100000000000000000000000000000000000000000000000000000000600052604160045260246000fd5b6000601f19601f8301169050919050565b7f43616c6c6572206973206e6f7420746865206f776e6572000000000000000000600082015250565b62000b3281620009b6565b811462000b3e57600080fd5b50565b62000b4c81620009e2565b811462000b5857600080fd5b5056fe60806040523480156200001157600080fd5b506040516200240638038062002406833981810160405281019062000037919062000462565b8686868183106200007f576040517f08c379a00000000000000000000000000000000000000000000000000000000081526004016200007690620005ae565b60405180910390fd5b80821115620000c5576040517f08c379a0000000000000000000000000000000000000000000000000000000008152600401620000bc906200058c565b60405180910390fd5b8a6000806101000a81548160ff0219169083151502179055504260018190555089600281905550886003819055508760048190555085600681905550846007819055508360088190555060005b87518163ffffffff161015620001d7576005888263ffffffff168151811062000164577f4e487b7100000000000000000000000000000000000000000000000000000000600052603260045260246000fd5b60200260200101519080600181540180825580915050600190039060005260206000209060020201600090919091909150600082015181600001556020820151816001019080519060200190620001bd929190620001e9565b505050600181620001cf91906200066f565b905062000112565b5050505050505050505050506200090e565b828054620001f7906200070c565b90600052602060002090601f0160209004810192826200021b576000855562000267565b82601f106200023657805160ff191683800117855562000267565b8280016001018555821562000267579182015b828111156200026657825182559160200191906001019062000249565b5b5090506200027691906200027a565b5090565b5b80821115620002955760008160009055506001016200027b565b5090565b6000620002b0620002aa84620005f9565b620005d0565b90508083825260208201905082856020860282011115620002d057600080fd5b60005b858110156200031f57815167ffffffffffffffff811115620002f457600080fd5b808601620003038982620003df565b85526020850194506020840193505050600181019050620002d3565b5050509392505050565b6000620003406200033a8462000628565b620005d0565b9050828152602081018484840111156200035957600080fd5b62000366848285620006d6565b509392505050565b600082601f8301126200038057600080fd5b81516200039284826020860162000299565b91505092915050565b600081519050620003ac81620008da565b92915050565b600082601f830112620003c457600080fd5b8151620003d684826020860162000329565b91505092915050565b600060408284031215620003f257600080fd5b620003fe6040620005d0565b9050600062000410848285016200044b565b600083015250602082015167ffffffffffffffff8111156200043157600080fd5b6200043f84828501620003b2565b60208301525092915050565b6000815190506200045c81620008f4565b92915050565b600080600080600080600080610100898b0312156200048057600080fd5b6000620004908b828c016200039b565b9850506020620004a38b828c016200044b565b9750506040620004b68b828c016200044b565b9650506060620004c98b828c016200044b565b955050608089015167ffffffffffffffff811115620004e757600080fd5b620004f58b828c016200036e565b94505060a0620005088b828c016200044b565b93505060c06200051b8b828c016200044b565b92505060e06200052e8b828c016200044b565b9150509295985092959890939650565b60006200054d6057836200065e565b91506200055a8262000816565b606082019050919050565b6000620005746030836200065e565b915062000581826200088b565b604082019050919050565b60006020820190508181036000830152620005a7816200053e565b9050919050565b60006020820190508181036000830152620005c98162000565565b9050919050565b6000620005dc620005ef565b9050620005ea828262000742565b919050565b6000604051905090565b600067ffffffffffffffff821115620006175762000616620007d6565b5b602082029050602081019050919050565b600067ffffffffffffffff821115620006465762000645620007d6565b5b620006518262000805565b9050602081019050919050565b600082825260208201905092915050565b60006200067c82620006c6565b91506200068983620006c6565b92508263ffffffff03821115620006a557620006a462000778565b5b828201905092915050565b60008115159050919050565b6000819050919050565b600063ffffffff82169050919050565b60005b83811015620006f6578082015181840152602081019050620006d9565b8381111562000706576000848401525b50505050565b600060028204905060018216806200072557607f821691505b602082108114156200073c576200073b620007a7565b5b50919050565b6200074d8262000805565b810181811067ffffffffffffffff821117156200076f576200076e620007d6565b5b80604052505050565b7f4e487b7100000000000000000000000000000000000000000000000000000000600052601160045260246000fd5b7f4e487b7100000000000000000000000000000000000000000000000000000000600052602260045260246000fd5b7f4e487b7100000000000000000000000000000000000000000000000000000000600052604160045260246000fd5b6000601f19601f8301169050919050565b7f5468652074696d6520746f206164642064656372797074696f6e206b6579732060008201527f6d7573742062652067726561746572207468616e206f7220657175616c20746f60208201527f2074686520656e642074696d65206f6620766f74696e67000000000000000000604082015250565b7f456e642064617465206f6620766f74696e67206d757374206265206c6174657260008201527f207468616e207374617274206461746500000000000000000000000000000000602082015250565b620008e581620006b0565b8114620008f157600080fd5b50565b620008ff81620006bc565b81146200090b57600080fd5b50565b611ae8806200091e6000396000f3fe608060405234801561001057600080fd5b50600436106101005760003560e01c8063823f16e311610097578063bd70f11d11610066578063bd70f11d146102b9578063d8e27eed146102d7578063e0d5cc3d146102f5578063ff4b04001461031157610100565b8063823f16e31461022f57806398c079381461024d578063b47414951461026b578063b98f693e1461028957610100565b806352f6ee58116100d357806352f6ee58146101a2578063580090e7146101c05780635c632b38146101de578063697c6da81461021157610100565b806307f816b614610105578063283bdf231461013557806330a56347146101535780633477ee2e14610171575b600080fd5b61011f600480360381019061011a9190611014565b61032f565b60405161012c9190611599565b60405180910390f35b61013d610353565b60405161014a9190611599565b60405180910390f35b61015b610360565b6040516101689190611599565b60405180910390f35b61018b60048036038101906101869190611014565b61036d565b6040516101999291906115eb565b60405180910390f35b6101aa610429565b6040516101b79190611599565b60405180910390f35b6101c861042f565b6040516101d5919061145c565b60405180910390f35b6101f860048036038101906101f39190611014565b610440565b6040516102089493929190611409565b60405180910390f35b6102196105b0565b6040516102269190611599565b60405180910390f35b6102376105b6565b6040516102449190611599565b60405180910390f35b6102556105bc565b6040516102629190611599565b60405180910390f35b6102736105c2565b6040516102809190611599565b60405180910390f35b6102a3600480360381019061029e919061103d565b6105cf565b6040516102b09190611577565b60405180910390f35b6102c1610a0e565b6040516102ce9190611599565b60405180910390f35b6102df610a14565b6040516102ec9190611599565b60405180910390f35b61030f600480360381019061030a9190610fad565b610a1a565b005b610319610dfe565b6040516103269190611599565b60405180910390f35b6009818154811061033f57600080fd5b906000526020600020016000915090505481565b6000600980549050905090565b6000600580549050905090565b6005818154811061037d57600080fd5b90600052602060002090600202016000915090508060000154908060010180546103a6906117f9565b80601f01602080910402602001604051908101604052809291908181526020018280546103d2906117f9565b801561041f5780601f106103f45761010080835404028352916020019161041f565b820191906000526020600020905b81548152906001019060200180831161040257829003601f168201915b5050505050905082565b60085481565b60008054906101000a900460ff1681565b600a818154811061045057600080fd5b90600052602060002090600402016000915090508060000160009054906101000a900473ffffffffffffffffffffffffffffffffffffffff1690806001018054610499906117f9565b80601f01602080910402602001604051908101604052809291908181526020018280546104c5906117f9565b80156105125780601f106104e757610100808354040283529160200191610512565b820191906000526020600020905b8154815290600101906020018083116104f557829003601f168201915b505050505090806002018054610527906117f9565b80601f0160208091040260200160405190810160405280929190818152602001828054610553906117f9565b80156105a05780601f10610575576101008083540402835291602001916105a0565b820191906000526020600020905b81548152906001019060200180831161058357829003601f168201915b5050505050908060030154905084565b60015481565b60035481565b60065481565b6000600a80549050905090565b6105d7610e4f565b823373ffffffffffffffffffffffffffffffffffffffff16600a8281548110610629577f4e487b7100000000000000000000000000000000000000000000000000000000600052603260045260246000fd5b906000526020600020906004020160000160009054906101000a900473ffffffffffffffffffffffffffffffffffffffff1673ffffffffffffffffffffffffffffffffffffffff16146106b1576040517f08c379a00000000000000000000000000000000000000000000000000000000081526004016106a890611477565b60405180910390fd5b836040516020016106c1906113d9565b60405160208183030381529060405280519060200120600a8281548110610711577f4e487b7100000000000000000000000000000000000000000000000000000000600052603260045260246000fd5b906000526020600020906004020160020160405160200161073291906113c2565b6040516020818303038152906040528051906020012014610788576040517f08c379a000000000000000000000000000000000000000000000000000000000815260040161077f90611557565b60405180910390fd5b6004544211156107cd576040517f08c379a00000000000000000000000000000000000000000000000000000000081526004016107c490611517565b60405180910390fd5b83600a8681548110610808577f4e487b7100000000000000000000000000000000000000000000000000000000600052603260045260246000fd5b9060005260206000209060040201600201908051906020019061082c929190610e8d565b50600a8581548110610867577f4e487b7100000000000000000000000000000000000000000000000000000000600052603260045260246000fd5b90600052602060002090600402016040518060800160405290816000820160009054906101000a900473ffffffffffffffffffffffffffffffffffffffff1673ffffffffffffffffffffffffffffffffffffffff1673ffffffffffffffffffffffffffffffffffffffff1681526020016001820180546108e6906117f9565b80601f0160208091040260200160405190810160405280929190818152602001828054610912906117f9565b801561095f5780601f106109345761010080835404028352916020019161095f565b820191906000526020600020905b81548152906001019060200180831161094257829003601f168201915b50505050508152602001600282018054610978906117f9565b80601f01602080910402602001604051908101604052809291908181526020018280546109a4906117f9565b80156109f15780601f106109c6576101008083540402835291602001916109f1565b820191906000526020600020905b8154815290600101906020018083116109d457829003601f168201915b505050505081526020016003820154815250509250505092915050565b60025481565b60045481565b8181600082604051602001610a2f91906113ee565b6040516020818303038152906040528051906020012090506000610a5883600754600854610e04565b604051602001610a6891906113ee565b604051602081830303815290604052805190602001209050808214610ac2576040517f08c379a0000000000000000000000000000000000000000000000000000000008152600401610ab9906114f7565b60405180910390fd5b846000805b600980549050811015610b395760098181548110610b0e577f4e487b7100000000000000000000000000000000000000000000000000000000600052603260045260246000fd5b9060005260206000200154831415610b2557600191505b600181610b3291906116e5565b9050610ac7565b508015610b7b576040517f08c379a0000000000000000000000000000000000000000000000000000000008152600401610b7290611537565b60405180910390fd5b6006546001600a80549050610b9091906116e5565b1115610bd1576040517f08c379a0000000000000000000000000000000000000000000000000000000008152600401610bc890611497565b60405180910390fd5b600254421015610c16576040517f08c379a0000000000000000000000000000000000000000000000000000000008152600401610c0d906114b7565b60405180910390fd5b6003544210610c5a576040517f08c379a0000000000000000000000000000000000000000000000000000000008152600401610c51906114d7565b60405180910390fd5b600a60405180608001604052803373ffffffffffffffffffffffffffffffffffffffff1681526020018b81526020016040518060400160405280600381526020017f3078300000000000000000000000000000000000000000000000000000000000815250815260200142815250908060018154018082558091505060019003906000526020600020906004020160009091909190915060008201518160000160006101000a81548173ffffffffffffffffffffffffffffffffffffffff021916908373ffffffffffffffffffffffffffffffffffffffff1602179055506020820151816001019080519060200190610d54929190610e8d565b506040820151816002019080519060200190610d71929190610e8d565b5060608201518160030155505060098790806001815401808255809150506001900390600052602060002001600090919091909150557f517339dc9a5376b22cd679433ca687a95d93958331709388998eaf43cb34c8ae6001600a80549050610dda919061173b565b3389604051610deb939291906115b4565b60405180910390a1505050505050505050565b60075481565b600060405160208152602080820152602060408201528460608201528260808201528360a082015260208160c08360056107d05a03fa610e4357600080fd5b80519150509392505050565b6040518060800160405280600073ffffffffffffffffffffffffffffffffffffffff1681526020016060815260200160608152602001600081525090565b828054610e99906117f9565b90600052602060002090601f016020900481019282610ebb5760008555610f02565b82601f10610ed457805160ff1916838001178555610f02565b82800160010185558215610f02579182015b82811115610f01578251825591602001919060010190610ee6565b5b509050610f0f9190610f13565b5090565b5b80821115610f2c576000816000905550600101610f14565b5090565b6000610f43610f3e84611640565b61161b565b905082815260208101848484011115610f5b57600080fd5b610f668482856117b7565b509392505050565b600082601f830112610f7f57600080fd5b8135610f8f848260208601610f30565b91505092915050565b600081359050610fa781611a9b565b92915050565b600080600060608486031215610fc257600080fd5b600084013567ffffffffffffffff811115610fdc57600080fd5b610fe886828701610f6e565b9350506020610ff986828701610f98565b925050604061100a86828701610f98565b9150509250925092565b60006020828403121561102657600080fd5b600061103484828501610f98565b91505092915050565b6000806040838503121561105057600080fd5b600061105e85828601610f98565b925050602083013567ffffffffffffffff81111561107b57600080fd5b61108785828601610f6e565b9150509250929050565b61109a8161176f565b82525050565b6110a98161176f565b82525050565b6110b881611781565b82525050565b60006110c982611686565b6110d3818561169c565b93506110e38185602086016117c6565b6110ec816118f3565b840191505092915050565b600061110282611686565b61110c81856116ad565b935061111c8185602086016117c6565b611125816118f3565b840191505092915050565b6000815461113d816117f9565b61114781866116be565b945060018216600081146111625760018114611173576111a6565b60ff198316865281860193506111a6565b61117c85611671565b60005b8381101561119e5781548189015260018201915060208101905061117f565b838801955050505b50505092915050565b60006111ba82611691565b6111c481856116c9565b93506111d48185602086016117c6565b6111dd816118f3565b840191505092915050565b60006111f5601c836116c9565b915061120082611904565b602082019050919050565b60006112186010836116c9565b91506112238261192d565b602082019050919050565b600061123b6016836116c9565b915061124682611956565b602082019050919050565b600061125e600e836116c9565b91506112698261197f565b602082019050919050565b60006112816016836116c9565b915061128c826119a8565b602082019050919050565b60006112a46003836116da565b91506112af826119d1565b600382019050919050565b60006112c76020836116c9565b91506112d2826119fa565b602082019050919050565b60006112ea6027836116c9565b91506112f582611a23565b604082019050919050565b600061130d6017836116c9565b915061131882611a72565b602082019050919050565b600060808301600083015161133b6000860182611091565b506020830151848203602086015261135382826110be565b9150506040830151848203604086015261136d82826110be565b9150506060830151611382606086018261138d565b508091505092915050565b611396816117ad565b82525050565b6113a5816117ad565b82525050565b6113bc6113b7826117ad565b61185c565b82525050565b60006113ce8284611130565b915081905092915050565b60006113e482611297565b9150819050919050565b60006113fa82846113ab565b60208201915081905092915050565b600060808201905061141e60008301876110a0565b818103602083015261143081866110f7565b9050818103604083015261144481856110f7565b9050611453606083018461139c565b95945050505050565b600060208201905061147160008301846110af565b92915050565b60006020820190508181036000830152611490816111e8565b9050919050565b600060208201905081810360008301526114b08161120b565b9050919050565b600060208201905081810360008301526114d08161122e565b9050919050565b600060208201905081810360008301526114f081611251565b9050919050565b6000602082019050818103600083015261151081611274565b9050919050565b60006020820190508181036000830152611530816112ba565b9050919050565b60006020820190508181036000830152611550816112dd565b9050919050565b6000602082019050818103600083015261157081611300565b9050919050565b600060208201905081810360008301526115918184611323565b905092915050565b60006020820190506115ae600083018461139c565b92915050565b60006060820190506115c9600083018661139c565b6115d660208301856110a0565b6115e3604083018461139c565b949350505050565b6000604082019050611600600083018561139c565b818103602083015261161281846111af565b90509392505050565b6000611625611636565b9050611631828261182b565b919050565b6000604051905090565b600067ffffffffffffffff82111561165b5761165a6118c4565b5b611664826118f3565b9050602081019050919050565b60008190508160005260206000209050919050565b600081519050919050565b600081519050919050565b600082825260208201905092915050565b600082825260208201905092915050565b600081905092915050565b600082825260208201905092915050565b600081905092915050565b60006116f0826117ad565b91506116fb836117ad565b9250827fffffffffffffffffffffffffffffffffffffffffffffffffffffffffffffffff038211156117305761172f611866565b5b828201905092915050565b6000611746826117ad565b9150611751836117ad565b92508282101561176457611763611866565b5b828203905092915050565b600061177a8261178d565b9050919050565b60008115159050919050565b600073ffffffffffffffffffffffffffffffffffffffff82169050919050565b6000819050919050565b82818337600083830152505050565b60005b838110156117e45780820151818401526020810190506117c9565b838111156117f3576000848401525b50505050565b6000600282049050600182168061181157607f821691505b6020821081141561182557611824611895565b5b50919050565b611834826118f3565b810181811067ffffffffffffffff82111715611853576118526118c4565b5b80604052505050565b6000819050919050565b7f4e487b7100000000000000000000000000000000000000000000000000000000600052601160045260246000fd5b7f4e487b7100000000000000000000000000000000000000000000000000000000600052602260045260246000fd5b7f4e487b7100000000000000000000000000000000000000000000000000000000600052604160045260246000fd5b6000601f19601f8301169050919050565b7f596f7520617265206e6f74207468652062616c6c6f74206f776e657200000000600082015250565b7f42616c6c6f747320657863656564656400000000000000000000000000000000600082015250565b7f566f74696e6720686173206e6f74207374617274656400000000000000000000600082015250565b7f566f74696e67206973206f766572000000000000000000000000000000000000600082015250565b7f5369676e6174757265206e6f7420766572696669656400000000000000000000600082015250565b7f3078300000000000000000000000000000000000000000000000000000000000600082015250565b7f54696d6520746f206164642064656372797074696f6e206b65797320656e6473600082015250565b7f5369676e61747572652068617320616c7265616479206265656e20757365642060008201527f746f20766f746500000000000000000000000000000000000000000000000000602082015250565b7f50726976617465206b657920616c726561647920736574000000000000000000600082015250565b611aa4816117ad565b8114611aaf57600080fd5b5056fea2646970667358221220e6cab913858d10a83129173e4766919da3ae1103fe119139002d4bb7ca3d3a6c64736f6c63430008040033a2646970667358221220f3ea72facbf20454fc2beb08e5ea648f314163330ff57aa27cc0913ef83fc57d64736f6c63430008040033",
  "linkReferences": {},
  "deployedLinkReferences": {}
}